{
  "contractName": "TodoList",
  "abi": [
    {
      "constant": true,
      "inputs": [
        {
          "name": "",
          "type": "uint256"
        }
      ],
      "name": "tasks",
      "outputs": [
        {
          "name": "id",
          "type": "uint256"
        },
        {
          "name": "content",
          "type": "string"
        },
        {
          "name": "completed",
          "type": "bool"
        }
      ],
      "payable": false,
      "stateMutability": "view",
      "type": "function"
    },
    {
      "constant": true,
      "inputs": [],
      "name": "taskCount",
      "outputs": [
        {
          "name": "",
          "type": "uint256"
        }
      ],
      "payable": false,
      "stateMutability": "view",
      "type": "function"
    },
    {
      "inputs": [],
      "payable": false,
      "stateMutability": "nonpayable",
      "type": "constructor"
    },
    {
      "anonymous": false,
      "inputs": [
        {
          "indexed": false,
          "name": "id",
          "type": "uint256"
        },
        {
          "indexed": false,
          "name": "content",
          "type": "string"
        },
        {
          "indexed": false,
          "name": "completed",
          "type": "bool"
        }
      ],
      "name": "TaskCreated",
      "type": "event"
    },
    {
      "constant": false,
      "inputs": [
        {
          "name": "_content",
          "type": "string"
        }
      ],
      "name": "creatTask",
      "outputs": [],
      "payable": false,
      "stateMutability": "nonpayable",
      "type": "function"
    }
  ],
  "bytecode": "0x60806040526000805534801561001457600080fd5b506100596040518060400160405280601581526020017f636865636b206f7574206d792070726f6a65637473000000000000000000000081525061005e60201b60201c565b61021d565b60008054600190810180835560408051606081018252828152602080820187815282840187905293865284815291909420845181559151805192936100ab93908501929190910190610182565b5060408201518160020160006101000a81548160ff0219169083151502179055509050507f05d0fb833127fc08168556d0e7ca9554fc3f6bc843b3b7d2bf1c35aea6bab660600054826000604051808481526020018060200183151515158152602001828103825284818151815260200191508051906020019080838360005b8381101561014357818101518382015260200161012b565b50505050905090810190601f1680156101705780820380516001836020036101000a031916815260200191505b5094505050505060405180910390a150565b828054600181600116156101000203166002900490600052602060002090601f016020900481019282601f106101c357805160ff19168380011785556101f0565b828001600101855582156101f0579182015b828111156101f05782518255916020019190600101906101d5565b506101fc929150610200565b5090565b61021a91905b808211156101fc5760008155600101610206565b90565b61044f8061022c6000396000f3fe608060405234801561001057600080fd5b50600436106100415760003560e01c80634b2c1b22146100465780638d977672146100ee578063b6cb58a514610195575b600080fd5b6100ec6004803603602081101561005c57600080fd5b81019060208101813564010000000081111561007757600080fd5b82018360208201111561008957600080fd5b803590602001918460018302840111640100000000831117156100ab57600080fd5b91908080601f0160208091040260200160405190810160405280939291908181526020018383808284376000920191909152509295506101af945050505050565b005b61010b6004803603602081101561010457600080fd5b50356102d3565b604051808481526020018060200183151515158152602001828103825284818151815260200191508051906020019080838360005b83811015610158578181015183820152602001610140565b50505050905090810190601f1680156101855780820380516001836020036101000a031916815260200191505b5094505050505060405180910390f35b61019d610382565b60408051918252519081900360200190f35b60008054600190810180835560408051606081018252828152602080820187815282840187905293865284815291909420845181559151805192936101fc93908501929190910190610388565b5060408201518160020160006101000a81548160ff0219169083151502179055509050507f05d0fb833127fc08168556d0e7ca9554fc3f6bc843b3b7d2bf1c35aea6bab660600054826000604051808481526020018060200183151515158152602001828103825284818151815260200191508051906020019080838360005b8381101561029457818101518382015260200161027c565b50505050905090810190601f1680156102c15780820380516001836020036101000a031916815260200191505b5094505050505060405180910390a150565b600160208181526000928352604092839020805481840180548651600296821615610100026000190190911695909504601f8101859004850286018501909652858552909491939290919083018282801561036f5780601f106103445761010080835404028352916020019161036f565b820191906000526020600020905b81548152906001019060200180831161035257829003601f168201915b5050506002909301549192505060ff1683565b60005481565b828054600181600116156101000203166002900490600052602060002090601f016020900481019282601f106103c957805160ff19168380011785556103f6565b828001600101855582156103f6579182015b828111156103f65782518255916020019190600101906103db565b50610402929150610406565b5090565b61042091905b80821115610402576000815560010161040c565b9056fea165627a7a72305820e5df819df29a86c3b53a8b209ec9814a6f157805d22c20c80e2f3f8ea638e3e30029",
  "source": "pragma solidity ^0.5.0;\r\ncontract TodoList {\r\n    \r\n    uint public taskCount = 0;\r\n    \r\n    struct Task {\r\n        uint id ;\r\n        string content;\r\n        bool completed ;\r\n    }\r\n        mapping(uint=>Task) public tasks ;\r\n\r\n        event TaskCreated(\r\n    uint id,\r\n    string content,\r\n    bool completed\r\n  );\r\n        \r\n        constructor() public {\r\n        creatTask(\"check out my projects\");\r\n    }\r\n        \r\n        function creatTask(string memory _content) public {\r\n            taskCount++ ;\r\n            tasks[taskCount] = Task ( taskCount , _content , false);\r\n            emit TaskCreated(taskCount, _content, false);\r\n    }\r\n    \r\n}",
  "sourcePath": "E:/eth-todo-list/contracts/Todo-list.sol",
  "compiler": {
    "name": "solc",
    "version": "0.5.8+commit.23d335f2.Emscripten.clang"
  },
  "schemaVersion": "3.0.16",
  "updatedAt": "2021-01-17T18:16:02.362Z",
  "devdoc": {
    "methods": {}
  },
  "userdoc": {
    "methods": {}
  }
}